:020000040800F2
:10000000100600209D0100088B2600083F240008F0
:1000100089260008A1040008393600080000000005
:10002000000000000000000000000000612900083E
:10003000A304000800000000AD26000863290008A2
:10004000B7010008B7010008B7010008B7010008B0
:10005000B7010008B7010008B7010008B7010008A0
:10006000B7010008B7010008A5040008B70100089F
:10007000B7010008B7010008B7010008B701000880
:10008000B7010008B7010008B7010008B701000870
:10009000B7010008B7010008B7010008AB04000869
:1000A000B7010008B7010008B70100080D2A0008D1
:1000B000B7010008B7010008B7010008B701000840
:1000C000B7010008B7010008B7010008B701000830
:1000D000B7010008B7010008B7010008B701000820
:1000E000B7010008B7010008B7010008B701000810
:1000F000B7010008B7010008B7010008B701000800
:10010000B7010008B7010008B7010008B7010008EF
:10011000C92F0008B7010008192A0008352A00086D
:10012000B7010008B7010008B7010008B7010008CF
:10013000B7010008B7010008B7010008B7010008BF
:10014000B7010008B7010008B7010008B7010008AF
:10015000B7010008B7010008B7010008B70100089F
:10016000B7010008B7010008B7010008B70100088F
:10017000B7010008B7010008B7010008000000003F
:10018000B7010008B7010008DFF80CD000F076F9DD
:1001900000480047593600081006002006488047EE
:1001A00006480047FEE7FEE7FEE7FEE7FEE7FEE75C
:1001B000FEE7FEE7FEE7FEE7C9290008890100081F
:1001C0002DE9F05F0546002092469B46884606468C
:1001D000814640241BE0284641464746224600F01F
:1001E000DFF853465A46C01A914110D311461846BB
:1001F000224600F0C6F82D1A67EB01084F4622464A
:100200000120002100F0BDF817EB00094E41201E2F
:10021000A4F10104DFDC484631462A46434600F09B
:1002200000B830BCBDE8C09FD2B201E000F8012B9D
:10023000491EFBD270470022F6E710B513460A4666
:1002400004461946FFF7F0FF204610BD2DE9FE4F8A
:1002500081EA030404F0004421F0004100944FF0CF
:10026000000B23F0004350EA01045ED052EA03047D
:100270005BD0C3F30A54C1F30A552C44A4F2F334FF
:100280000194A0FB0254C1F3130141F48011C3F3A4
:10029000130343F4801301FB024400FB034E840A62
:1002A000970A44EA815447EA8357A4FB07680295FA
:1002B0008D0A05FB07854FEA932C04FB0C54270598
:1002C000029D4FEA065847EA1637B5EB08056EEB74
:1002D000070C870E920E47EA811742EA8312A7FBAA
:1002E0000201B6EB0B0164EB00042B0D43EA0C3367
:1002F0005E1844EB1C50DA465146E7FB0201C5F399
:1003000013044FEA0B3343EA14534FEA0432019CBF
:1003100043EA0603A4F10C040294009CCDE900B466
:1003200000F05DF803B000F003B800200146F9E7E3
:1003300030BCBDE8C08F0EB540F2334102910021C0
:10034000CDE900110A460B4600F049F803B000BDA4
:10035000C1F30A5210B5C1F3130140F2FF3341F467
:1003600080119A4201DA002010BD40F233439A42D4
:10037000A2F2334203DC524200F012F810BD90406A
:1003800010BD202A04DB203A00FA02F10020704759
:100390009140C2F1200320FA03F3194390407047C3
:1003A000202A04DB203A21FA02F00021704721FACA
:1003B00002F3D040C2F12002914008431946704731
:1003C00010B5141E73F1000408DA401C41F100015D
:1003D00092185B411A4301D120F0010010BD2DE9B4
:1003E000F04D92469B4611B1B1FA81F202E0B0FAAB
:1003F00080F220329046FFF7C4FF04460F4640EAE1
:100400000A0041EA0B0153465A46084313D01146ED
:1004100053EA010019D0C8F140025046FFF7C0FF6F
:1004200005460E46504659464246FFF7AAFF084386
:1004300005D0012004E020463946BDE8F08D0020BB
:10044000054346EAE0762C4337430A986305E40AFD
:10045000A0EB08000022FD0A44EA47540A3002D506
:1004600000200146E9E7010510196941DDE9084569
:1004700000196941BDE8F04DA2E70000064C074DA8
:1004800006E0E06840F0010394E807009847103464
:10049000AC42F6D3FFF77CFE403800086038000815
:1004A000FEE77047102000F0A7B9202000F0A4B9A3
:1004B00070472DE9F0470446407900270E46012891
:1004C0000BD04FF0010984F80590022020713068AC
:1004D00002F01005042803D043E00220BDE8F087B5
:1004E0004FF0030802BB00F083FA074604E000F077
:1004F0007FFAC01B01280FD82068406B0004F6D497
:10050000012000F043F92168B069086416E000F0AA
:100510006FFAC01B012807D9206940F0080020614C
:1005200084F804800320D9E72068406B0028EEDBC4
:10053000012000F02BF92168B06948642068816CC3
:1005400040F2FF32AA409143F269AA40114381640C
:100550002068C16CFF22AA409143326AAA4011432D
:10056000C1643069012808D12268916B1F20A8401E
:1005700081437069A840084390632268D16B0720CB
:10058000A8408143B36830681843F3681843A84013
:100590000843D063206801684FF48042AA40914329
:1005A00001602268116840F6FC70A84081437068C1
:1005B000A8400843106020680168C022AA40914307
:1005C000016084F804900020607187E7704770B57F
:1005D0000446006801684FF00405890411D5416B99
:1005E00089040ED52571216941F001012161E902DB
:1005F00041632068016821F4805101602046FFF7C3
:10060000E5FF20680168890014D5416B890011D588
:100610002571216941F0020121614FF000514163D0
:100620002068016821F0805101602046BDE87040DB
:10063000FFF73EBF70BD70B5040003D020790025E0
:1006400010B105E0012070BD6571204600F008F88A
:1006500002202071256101202071002070BD000062
:1006600010B586B0044614216846FFF7E4FD15492D
:100670002068884223D11448816D41F00051816582
:10068000816D01F000510591C16C41F00101C1641F
:10069000C06C694600F00100059010200090032016
:1006A0000190002002904FF0904000F0B1F800223D
:1006B0001146362000F0F4F9362000F0E5F906B0D6
:1006C00010BD0000007400400010024018B504681E
:1006D00000940068104421B11430009003600020A1
:1006E00018BD0830F9E770B54279012A14D001220B
:1006F00042710223037103681D6801F0100602FABB
:1007000006F425431D60002901680B6806D0C3F379
:100710008343012B0AD00DE0022070BDC3F3830395
:10072000012B07D14B6843F0010302E04B6843F013
:1007300002034B60027100214171084670BD10B583
:1007400090F825100024022903D00421C16301245C
:100750001AE001680A6822F00E020A6001680A685D
:1007600022F001020A6090F84410036C01F01C02B0
:10077000012101FA02F25A6080F82510002180F868
:100780002410816B01B18847204610BD70B5044626
:1007900000F02EF90546601C00D0641C00F028F91A
:1007A000401BA042FAD370BD104910B58A791028B9
:1007B00011D0202819D1022A17D2022088710421D1
:1007C0000B4801F0EFFBBDE8104000224FF48061C0
:1007D000084800F007B9012A07D001208871BDE858
:1007E00010400421024801F0DDBB10BD00000020D4
:1007F000D400002000040048044910B50A680242F1
:1008000002D00860FFF7D0FF10BD000014040140C3
:100810002DE9F84FDFF898B100234FF0010C4FF0AD
:10082000030A4FF00F090BF1040EB9E00CFA03F4C0
:10083000224070D04D68022D01D0122D0ED1DD085E
:1008400000EB8508D8F820505E07F70E09FA07F686
:10085000B5430E69BE402E43C8F8206007685E00AD
:1008600091F804800AFA06F508F00308AF4308FA85
:1008700006F848EA0708C0F800804F68012F05D045
:10088000022F03D0112F01D0122F13D1D0F80880DE
:10089000CF6828EA0508B74047EA08078760D0F81C
:1008A00004800F7928EA0408C7F300179F4047EA3D
:1008B00008074760D1F804806FEA0807BF0706D130
:1008C000C76AA743C8F3C0049C403C43C462C468E1
:1008D000AC438D68B5402543C5604C68E4005ED5E7
:1008E000344C256E45F001052566246E23F0030582
:1008F00004F001040094304C2E19B4689D072F0FAA
:1009000009FA07F5AC43B0F1904F05D02B4DA84242
:1009100004D101251CE042E0002519E0284DA84241
:1009200001D1022514E0274DA84201D103250FE093
:10093000254DA84201D104250AE0244DA84201D149
:10094000052505E0224DA84201D1062500E0072536
:10095000BD402543B560DBF800405D464E689443DA
:10096000F60300D514432C60DEF8004075464E684F
:100970009443B60300D514432C600D4D08352C6804
:100980004E689443F60200D514432C60084D0C3594
:100990002C684E689443B60200D514432C605B1C4F
:1009A0000A6832FA03F57FF441AF00F013B8000093
:1009B0000004014000100240000001400004004813
:1009C00000080048000C00480010004800140048CF
:1009D0000018004818BCBDE8E08F0069084000D04E
:1009E000012070470AB18161704781627047000041
:1009F0000148006870470000440000200248016878
:100A0000491C0160704700004400002010B500241C
:100A1000032000F065F8002000F008F808B1012478
:100A200001E000F01BF8204610BD000070B505463F
:100A300009484FF47A7100240068B0FBF1F000F02F
:100A400087FE08B1012404E000222946501E00F070
:100A500027F8204670BD000048000020094808B56E
:100A6000016E41F001010166016E01F0010100918A
:100A7000816D41F080518165806D00F08050009063
:100A800008BD00000010024000F01F02012191404B
:100A90004009800000F1E020C0F80011704700001C
:100AA000F0B40E4B1B680C46C3F30223C3F10705D9
:100AB000042D00D90425191D072901D2002300E0C7
:100AC000DB1E012606FA05F1491E214099409E4091
:100AD000761E16403143F0BC01F0D8BD0CED00E0AD
:100AE000064900F0070208684FF6FF03184040EA85
:100AF0000220034A10430860704700000CED00E03C
:100B00000000FA0570B504004FF000050FD094F80E
:100B1000320005280BD094F83200022807D094F850
:100B2000320094F832004FF4804610B104E0012006
:100B300070BD002084F83100204600F067F820687E
:100B4000016821F480510160E068082811D1A06893
:100B50002269A16940F00800114308436169084314
:100B6000E169084321680A6844F23E739A431043DE
:100B70000860E0680C280DD1A068E269616940F066
:100B80000C001143084321680A6844F20E439A435B
:100B900010430860E06868B9D4E90412A068114302
:100BA0000843E169084321680A6844F20E739A43D6
:100BB00010430860E069B04217D1A06841F61F7188
:100BC000022809D0D4E9082040EA022022685368AC
:100BD0008B430343536008E0D4E90A0242EA00234E
:100BE00022689068884318439060074801686268EB
:100BF00021F000411143016094F8320010B9012046
:100C000084F83200284670BD0078004030B587B0C7
:100C1000044614216846FFF70EFB184920688842F5
:100C200029D11748816D41F080418165816D01F0C6
:100C300080410591C16C41F00101C164C16C01F0BA
:100C400001010591C16C41F00201C164C06C032433
:100C500000F002000590C02000258DE831006946B3
:100C60004FF09040FFF7D4FD01208DE83100694638
:100C70000448FFF7CDFD07B030BD000010780040FC
:100C80000010024000040048002138B190F83220E2
:100C9000052A03D090F83220012A02D0012108460B
:100CA00070470268136843F001031360042280F860
:100CB0003220F4E71649B0F5007F0868C0F3412000
:100CC00009D0022805D0086820F4C06040F4806094
:100CD0000860002070470128FBD0086820F4C0603D
:100CE00040F4007008600B483222006850430A4A02
:100CF000B0FBF2F0401C00E0401E4A69520501D5ED
:100D00000028F9D148694005E3D503207047000069
:100D1000007000404800002040420F000248006878
:100D200000F4C06070470000007000402DE9F84FEB
:100D3000044600270088E54D3E46010504F1200BDE
:100D40001DD5606E78B1B0F5800F11D0B0F5000FF1
:100D500004D0B0F5400F22D001270FE0E86840F43E
:100D60008030E8601BE00021201D01F0A1FC03E0C1
:100D70000021584601F032FD070010D03E46208881
:100D8000C00426D5A06EC0B1B0F1807F1AD0B0F1FA
:100D9000007F0DD0B0F1407F19D0012718E0D5F8C1
:100DA0008800616E20F440000843C5F88800E6E73B
:100DB000E86840F48030E86009E00021201D01F07F
:100DC00077FC03E00021584601F008FD0746F7B123
:100DD0003E46206880033AD5A86D4FF00008C00059
:100DE00009D4A86D40F08050A865A86D4FF00108A7
:100DF00000F080500090DFF8D8A2DAF8001041F43B
:100E00008071CAF80010FFF7F3FD814610E0D5F8B5
:100E10008800A16E20F040700843C5F88800D8E72C
:100E2000FFF7E6FDA0EB0900022801D9032705E042
:100E3000DAF80000C005F3D5002F7CD04FEA070692
:100E4000B8F1000F03D0A86D20F08050A86520787D
:100E5000C00707D0D5F88800A16B20F00300084335
:100E6000C5F888002078800707D5D5F88800E16BA1
:100E700020F00C000843C5F888002078400707D50B
:100E8000D5F88800216C20F030000843C5F88800B0
:100E90002078000707D5D5F88800616C20F0C000E5
:100EA0000843C5F888002078C00607D5D5F8880023
:100EB000A16C20F440700843C5F8880020788006B3
:100EC00007D5D5F88800E16C20F440600843C5F8E8
:100ED00088002088800507D5D5F88800E16D20F4CA
:100EE00040200843C5F888002088400507D5D5F87C
:100EF0008800216E20F440100843C5F8880020784F
:100F0000400607D5D5F88800216D20F440500843ED
:100F1000C5F888002078000607D5D5F88800616DEF
:100F200020F440400843C5F888002088C00509D552
:100F3000D5F8880000E01CE0A16D20F440300843A3
:100F4000C5F8880020884FF0006780044FF0806863
:100F50004FD5D5F88800E16E20F040600843C5F811
:100F60008800E06EB8423CD1E86840F48010E86048
:100F70003FE0D5F8900010F4407015D0D4F88410FC
:100F8000814211D0D5F89000D5F8901020F440702F
:100F900041F48031C5F89010D5F8901021F48031DB
:100FA000C5F89010C5F89000C00710D0FFF720FDDD
:100FB000074641F2883906E0FFF71AFDC11B494593
:100FC00001D903263CE7D5F890008007F4D5D5F881
:100FD0009000D4F8841020F440700843C5F89000C5
:100FE0002EE7404505D10121201D01F061FB00B134
:100FF00006462068000317D5D5F88800216F20F039
:1010000040600843C5F88800206FB84204D1E86802
:1010100040F48010E86007E0404505D10121201D23
:1010200001F046FB00B106462068400317D5D5F80D
:101030008800616F20F040600843C5F88800606F49
:10104000B84204D1E86840F48010E86007E0404509
:1010500005D10121201D01F02BFB00B1064620889F
:1010600040041AD5D5F88800A16F20F040500843FD
:10107000C5F88800A06FB0F1805F03D0B0F1005FC9
:1010800005D00AE00221201D01F012FB03E002213D
:10109000584601F0A3FB00B106462088000407D59E
:1010A000D5F88800E16F20F080400843C5F888003B
:1010B0002068C00307D555F8880FD4F8801020F0B9
:1010C000004008432860304600F004B80010024099
:1010D0000070004018BCBDE8E08F00002DE9F0472B
:1010E0000F46050058D03F4E306800F00700B84268
:1010F00009D2306820F0070038433060306800F0D3
:101100000700B84248D12878374CC0072CD068680F
:10111000032811D0022812D0216898B1490500296E
:101120003ADAA16821F003010143A160FFF760FCF6
:10113000804641F2883910E021688901EFE7216893
:101140008903ECE78907EAE7FFF752FCA0EB080107
:10115000494502D90320BDE8F087A068696800F01E
:101160000C00B0EB810FEFD12878800705D5A0687F
:10117000A96820F0F0000843A060306800F0070084
:10118000B8420BD9306820F007003843306030682F
:1011900000F00700B84201D00120DCE728784007C2
:1011A00005D5A068E96820F4E0600843A0602878CD
:1011B000000706D5A068296920F4605040EAC10004
:1011C000A06000F041F8A168084AC1F30311515C26
:1011D00001F01F01C84006490860BDE8F047002043
:1011E000FFF724BC0020024000100240F83700083E
:1011F00048000020014800687047000048000020B7
:101200000548064900688968054AC1F30221515C16
:1012100001F01F01C8407047480000200010024044
:10122000383800080548064900688968054AC1F34E
:10123000C221515C01F01F01C840704748000020E6
:10124000001002403838000870B5254900231846C0
:101250008A68CC6812F00C0204F00306214C4FEAB5
:10126000640509D00C2A05D0042A26D0082A00D10A
:10127000284670BD012E10D10B681B0704D4D1F88D
:101280009430C3F3032302E00B68C3F30313164E39
:1012900056F823307AB10C2AEBD1C86800F003026B
:1012A000C868C0F30210401C022A08D0032A09D0E3
:1012B000B3FBF0F008E0184670BD204670BDB4FBEB
:1012C000F0F001E0B5FBF0F0CA68C968C2F306228D
:1012D0005043C1F34161491C4900B0FBF1F070BDBE
:1012E000001002400024F400083800082DE9F843FB
:1012F00005007CD0FD4CA06800F00C06E06800F012
:1013000003072878C00661D576B10C2E01D1012FD4
:101310000AD0A8690028206878D040F00100206039
:10132000FFF766FB804659E02068800702D5A86970
:101330000028DED0286A2168090703D5216801F05A
:10134000F00104E0D4F89410F02202EA111188426E
:1013500015D901F0C7FA002849D1206840F00800EB
:1013600020602068296A20F0F0000843206060684F
:10137000E96920F47F4040EA0120606015E02068C0
:1013800040F0080020602068296A20F0F00008433F
:1013900020606068E96920F47F4040EA01206060D5
:1013A000286A01F09FFA0028D6D1FFF74DFFA16807
:1013B000CF4AC1F30311515C01F01F01C840CD4970
:1013C00008600020FFF732FB00287DD12FE000BF2E
:1013D000FFF70EFBA0EB0800022876D820688007F4
:1013E000F6D5206840F008002060206801E0BBE0EE
:1013F0000CE0296A20F0F000084320606068E96989
:1014000020F47F4040EA0120606010E020F00100FD
:101410002060FFF7EDFA804606E000BFFFF7E8FA2C
:10142000A0EB08000228D8D820688007F6D42878D6
:10143000C00740D0082E18D00C2E01D1032F14D095
:101440006868B0F5803F17D0B0F5A02F206817D09E
:1014500020F480302060206820F4802020606868BC
:10146000E0B1FFF7C5FA804614E02068800322D57A
:101470006868002878D01EE0206840F48030EDE7EE
:1014800040F480202060F7E7FFF7B2FAA0EB0800F5
:101490006428A2D820688003F6D50CE0FFF7A8FAEC
:1014A000804605E0FFF7A4FAA0EB0800642894D872
:1014B00020688003F6D4287880073BD5042E11D00D
:1014C0000C2E04D1022F01E036E1A1E00AD0E86839
:1014D000002820681ED040F480702060FFF788FA52
:1014E00007460CE0206840050CD5E8680028C1D00C
:1014F00008E000BFFFF77CFAC01B022893D82068E1
:101500004005F7D56068297C20F0F85040EA01607A
:1015100060600FE020F480702060FFF769FA0746F2
:1015200005E000BFFFF764FAC01B022870D82068EE
:101530004005F7D42878000729D568690028D4F831
:10154000940012D040F00100C4F89400FFF750FA64
:10155000074604E0FFF74CFAC01B022858D8D4F81D
:1015600094008007F6D512E0EDE020F00100C4F809
:101570009400FFF73DFA074605E000BFFFF738FA91
:10158000C01B022844D8D4F894008007F6D42878E9
:10159000400768D5A06D0027C00008D4A06D40F0BA
:1015A0008050A065A06D012700F080500090524847
:1015B0000168C90512D40168814641F48071016057
:1015C000FFF716FA804605E0FFF712FAA0EB0800D5
:1015D00002281DD8D9F80000C005F5D5A868012853
:1015E00017D00528D4F8900018D020F00100C4F8D6
:1015F0009000D4F8900020F0040000BFC4F89000E0
:10160000A86841F28839D0B1FFF7F2F9804611E0BD
:101610006BE0D4F8900040F00100EFE740F00400E8
:10162000C4F89000F5E700BFFFF7E2F9A0EB08016E
:1016300049455AD8D4F890008007F5D50EE0FFF759
:10164000D7F9804606E000BFFFF7D2F9A0EB08010A
:10165000494570D8D4F890008007F5D41FB1A06D2B
:1016600020F08050A065A86AF0B30C2E6BD0022841
:10167000206820F08070206004D0206810F0205F87
:1016800047D04AE0FFF7B4F9064604E0FFF7B0F9A7
:10169000801B02284FD820688001F7D4286BE96AA4
:1016A000000110380843696BAA6B0902120941EA6C
:1016B00042410843A98F114A490802EB41510843AE
:1016C00095F840104908120102EB41610843E060BF
:1016D000206840F080702060E06840F08070E0603A
:1016E000FFF786F9054610E02BE024E000100240E9
:1016F000F837000848000020007000400000E0FFBC
:10170000FFF776F9401B022815D820688001F7D52D
:1017100017E0E06820F00300E060E0680B49084053
:10172000E060FFF765F9054608E000BFFFF760F9E4
:10173000401B022802D90320BDE8F88320688001FD
:10174000F4D40020F8E70120F6E70000FFFFEEFEEA
:1017500010B5401EB0F1807F01D3012010BD4FF0C5
:10176000E02460610F21601700F090FF0020A0616D
:1017700007202061002010BD7047704770470000AF
:1017800070B590F83C20012A24D0012480F83C4018
:10179000022280F83D200268536895680E4EB242DE
:1017A00002D00E4EB24203D123F470064B6833438D
:1017B00023F070060B688968334325F080052943C0
:1017C00053600268916080F83D40002180F83C1031
:1017D000084670BD022070BD002C0140003401405D
:1017E00010B5040003D094F83D0010B107E00120CB
:1017F00010BD002084F83C00204600F00DF80220C7
:1018000084F83D00211D206801F01AF9012084F8B8
:101810003D00002010BD000010B586B00446142124
:101820006846FEF708FD2F4A21682F48914225D1CE
:10183000016E41F400610166016E01F400610591E1
:10184000C16C41F00101C164C06C694600F0010047
:1018500005904FF44070009002200190002002900B
:101860000390012004904FF09040FEF7D1FF00223A
:1018700011461B20FFF714F91B2013E0B1F1804F34
:1018800014D01A4A91421AD1816D41F0100181653C
:10189000806D002200F01000059011463620FFF701
:1018A000FFF83620FFF7F0F806B010BD816D41F06B
:1018B00001018165806D00F001000590F4E70C4A9C
:1018C0009142F1D1816D41F020018165806D00224E
:1018D00000F02000059011463720FFF7E1F837208F
:1018E000E0E70000002C0140001002400010004022
:1018F0000014004070B5044690F83C00012817D051
:10190000012584F83C50022084F83D00206882685C
:10191000324E324022F47F4282600868502839D02B
:101920000DDC202855D005DC98B3102843D150E0B9
:10193000022070BD30284CD040283CD141E06028C6
:1019400030D070280CD0B0F5805F03D0B0F5005FC8
:1019500031D112E020688168204A7032114016E0CF
:10196000CB68D1E90121206801F0D7F821688868A7
:10197000304040F0770088601DE0CB68D1E901215C
:10198000206801F0CAF82068816841F480418160D4
:1019900011E01EE0CA684968206801F099FA5021F8
:1019A000206806E0CA684968206801F0DFFA602113
:1019B000206801F0BCF884F83D50002084F83C0019
:1019C00070BDCA684968206801F082FA4021206829
:1019D000EFE7226801461046EBE7000088FFFEFFB4
:1019E0002DE9F0410646007F2E4D2F4C01281AD1DB
:1019F0000021284600F02EFBA084FFF713FC206393
:101A0000FFF7FEFB6063FFF7F5FBA063FFF70AFC3F
:101A10002968896A491CB0FBF1F080B2E084A18C8E
:101A2000B0FBF1F02085204F2A3779883888814231
:101A300001D3081A03E02A68D26A101A08442084E5
:101A4000FFF7DEFB2968896A491CB0FBF1F080B220
:101A500000EE100A208C0021F8EE400A00EE100A79
:101A6000B8EE400A80EE801ABCEEC10A10EE100AF1
:101A7000E083304600F0EEFA38800421304600F072
:101A8000E9FA0A4980B2788009686184398821B10D
:101A900064225043B0FBF1F000E000206082BDE81A
:101AA000F08100009400002000000020342C014050
:101AB0002DE9F041044690F83C000D4601283DD048
:101AC000012684F83C60022084F83D00AAB3042A71
:101AD00046D02068082A55D0D5E90027E968036A6E
:101AE00023F480530362D0F81CC0036A2CF4407CBA
:101AF0004CEA07274FF6FF7C27F470470CEA0131C8
:101B000039434FF4204723F4204307EA02321A43B3
:101B1000C16102622068C16921F44061C16120682D
:101B2000C169AA6841EA0221C0F81C1084F83D602E
:101B3000002084F83C00BDE8F08101E00220FAE7D3
:101B4000D5E90012EB68206801F0D4F920688169BA
:101B500021F00C01816120688169AA6811430FE0BE
:101B6000D5E90012EB68206801F012FA206881695B
:101B700021F44061816120688169AA6841EA0221FB
:101B80008161D3E7D5E9002C2F7B016A21F48071B4
:101B90000162C169036A21F0030141EA0C0121F0ED
:101BA000F00C39074FF420674CEA116123F42063ED
:101BB00007EA02221A43C16102622068C16921F06A
:101BC0000C01C1612068C169AA681143ACE710B576
:101BD000040003D094F83D0010B107E0012010BDCF
:101BE000002084F83C00204600F00CF8022084F825
:101BF0003D00211D206800F023FF012084F83D00F6
:101C0000002010BD7047000010B50268044631B1D5
:101C1000042908D008291FD00C2908D120E0D06859
:101C200040F0020002E0D06840F00400D0600122E1
:101C3000206800F065FF206882680B490A40062A88
:101C400008D082680A40B2F5803F03D0016841F0B5
:101C500001010160002010BDD06840F00800E5E7F8
:101C6000D06840F01000E1E70700010070B50446BD
:101C7000006801694FF00005C943890715D4C168A0
:101C8000C943890711D4E91E01610120207720682A
:101C900080698007204602D0FFF7A2FE04E000F032
:101CA000CFF8204600F07DF9257720680169C94307
:101CB000490717D4C168C943490713D46FF0040119
:101CC0000161022020772068806910F4407F20465F
:101CD00002D0FFF785FE04E000F0B2F8204600F0E5
:101CE00060F9257720680169C943090716D4C168DE
:101CF000C943090712D46FF008010161042020775D
:101D00002068C0698007204602D0FFF769FE04E022
:101D100000F096F8204600F044F925772068016924
:101D2000C943C90617D4C168C943C90613D46FF0A3
:101D300010010161082020772068C06910F4407FFD
:101D4000204602D0FFF74CFE04E000F079F8204670
:101D500000F027F9257720680169C943C90708D130
:101D6000C168C943C90704D1891E0161204600F03A
:101D700051F920680169C943090609D4C168C943FA
:101D8000090605D46FF0800101612046FFF7F5FCDC
:101D900020680169C943C90509D4C168C943090656
:101DA00005D46FF4807101612046FFF7E5FC2068DF
:101DB0000169C943490609D4C168C943490605D424
:101DC0006FF040010161204600F087F92068016949
:101DD000C94389060BD4C168C943890607D46FF08B
:101DE000200101612046BDE87040FFF7C7BC70BD0F
:101DF00010B586B0044614216846FEF71CFA206828
:101E0000B0F1804F15D10C48C16C41F00201C164A2
:101E1000C06C694600F00200059008200090022086
:101E20000190002002900390012004900348FEF7E7
:101E3000EFFC06B010BD0000001002400004004896
:101E4000704770B5044690F83C000D4601280ED04E
:101E5000012684F83C60022084F83D000C2A45D01D
:101E600007DC5AB1042A1BD0082A78D12CE00220C2
:101E700070BD102A4ED0142A71D15DE0206800F0A8
:101E80005FFE2068816941F00801816120688169F5
:101E900021F004018161206881692A69114311E000
:101EA000206800F09BFE2068816941F40061816137
:101EB0002068816921F480618161206881692A69D3
:101EC00041EA022181614AE0206800F0CFFE2068EB
:101ED000C16941F00801C1612068C16921F00401B4
:101EE000C1612068C1692A69114311E0206800F0CE
:101EF00005FF2068C16941F40061C1612068C169C2
:101F000021F48061C1612068C1692A6941EA022126
:101F1000C16124E0206800F02BFF2068416D41F092
:101F2000080141652068416D21F004014165206888
:101F3000416D2A69114311E0206800F051FF2068CB
:101F4000416D41F4006141652068416D21F480617B
:101F500041652068416D2A6941EA0221416584F8A2
:101F60003D60002084F83C0070BD10B5040003D033
:101F700094F83D0010B107E0012010BD002084F866
:101F80003C00204600F00CF8022084F83D00211DA2
:101F9000206800F055FD012084F83D00002010BDB0
:101FA0007047704710B504460068012200F0A8FD94
:101FB0001248216881420BD01148814208D0114853
:101FC000814205D01048814202D01048814203D19D
:101FD000486C40F400404864206882680C490A401C
:101FE000062A08D082680A40B2F5803F03D0016813
:101FF00041F001010160002010BD0000002C0140F3
:1020000000340140004001400044014000480140CC
:10201000070001000D494A7A521C4A7200680C4AB6
:10202000904211D1C87900280ED04A7B4008521C3A
:102030004A73C871C1074FF0904001D0012200E0FF
:1020400000222021FEF7CEBC7047000000000020D7
:102050000010004090F83C300022012B0AD00123F0
:1020600080F83C3041B1042909D008290AD00C2954
:102070000DD10AE00220704701684A6B07E0016851
:102080008A6B04E00168CA6B01E001680A6C0021F8
:1020900080F83C101046704770B5044690F83C003C
:1020A000012818D0012584F83C50022084F83D0016
:1020B000204600F0CDFE2068C16821F04001C160DB
:1020C0002068C16821F48041C16084F83D5000203F
:1020D00084F83C0070BD022070BD704770477047A7
:1020E0002DE9F04102680446D0691168936810F048
:1020F0000F0F4FF000055BD003F0010601F490775D
:10210000374369D0C70707D0CF0505D50127176228
:10211000626F42F001026267820708D5DA0706D0D3
:10212000276802223A62626F42F004026267420745
:1021300008D5DA0706D0236804221A62626F42F0DB
:102140000202626702070AD501F02002324306D07C
:10215000236808221A62626F42F008026267626FA7
:10216000002A32D0800605D5880603D5216E09B134
:1021700020468847606F000703D4206880684006C7
:1021800025D5204600F0C2FF20688168490619D590
:10219000816821F040018160E06E98B1204981633F
:1021A000E06EFEF7CCFA00280FD0E06E816B06E0FF
:1021B000860611D58E060FD5216E1EE02046BDE89D
:1021C000F04108472046FFF78AFFBDE8F08120462E
:1021D000FFF785FF6567F8E7C60209D55B0207D5FB
:1021E0004FF4801010622046BDE8F041FFF776BF43
:1021F000030605D50B0603D5616E0029DED1E4E7A1
:102200004006E2D54806E0D51168204621F040019D
:102210001160202184F87110656600F00FF9D4E791
:10222000F930000810B5040003D094F8710010B123
:1022300007E0012010BD002084F87000204600F067
:1022400027F8242084F871002068016821F001013A
:102250000160204600F0C6FF0128EBD0606A10B193
:10226000204600F0B7FE2068416821F490414160AB
:102270002068816821F02A0181602068016841F0AE
:10228000010101602046BDE8104000F007BF0000DA
:10229000F0B587B0044614216846FDF7CCFF1E490F
:1022A0002068884235D11D48816D41F40021816547
:1022B000816D01F400210591C16C41F00101C164FF
:1022C000C16C01F001010591C16C41F00401C164D0
:1022D000C06C022400F0040008270094CDE90470CB
:1022E00001AA0025032682E8700069464FF090405D
:1022F000FEF78EFA60028DE8F10069460848FEF7A5
:1023000087FA002211463420FEF7CAFB3420FEF77C
:10231000BBFB07B0F0BD0000004C004000100240C5
:102320000008004830B590F87230202B4AD1B1B186
:10233000AAB190F87030012B44D0012380F870309E
:102340004165A0F85820A0F85A20002202661D031B
:102350008168FF23A94207D1016911B10CE0012076
:1023600030BD40F2FF110DE07F2419B1B1F1805F63
:1023700005D009E0016901BBA0F85C3004E0016907
:10238000D9B13F21A0F85C104267222180F8721079
:1023900001688B6843F001038B608168A94201D119
:1023A000016969B10849016680F870200068016818
:1023B00041F490710160002030BDA0F85C40E3E77B
:1023C0000249F0E7022030BD893100082D310008B4
:1023D0007047000090F87130202B29D1B9B1B2B10B
:1023E00090F87030012B23D0012380F87030C16445
:1023F000A0F85020A0F85220002141664167212218
:1024000080F871208268B2F5805F02D003E001207D
:102410007047026952B1074A426680F8701000683E
:10242000016841F08001016000207047024AF3E733
:1024300002207047C7340008853400087047FEE763
:102440002DE9F04186B014216846FDF7F4FE3748C7
:10245000C16C41F08001C164C16C01F08001059143
:10246000C16C41F00401C164C16C01F0040105912B
:10247000C16C41F00101C164C16C01F00101059121
:10248000C16C41F00201C164C06C4FF0904700F094
:1024900002000590002220213846FEF7A3FADFF85B
:1024A00090804FF48066002231464046FEF79AFA4B
:1024B00000242F20CDE9000469461E480294FEF74F
:1024C000A7F90125CDE90054694638460294FEF784
:1024D0009FF920200090CDE90154694638460394C5
:1024E000FEF796F90096CDE90154694640460394FB
:1024F000FEF78EF9302000900F48CDE901046946BF
:102500004046FEF785F9002211460A20FEF7C8FA78
:102510000A20FEF7B9FA002211461720FEF7C0FA8A
:102520001720FEF7B1FA06B0BDE8F08100100240B6
:1025300000040048000800480000111030B591B0B8
:1025400000240C940D940E94142104A80F94FDF70C
:1025500072FE22480A940B94099400940194029408
:102560001D4901250394C0E900154FF6FF71C0E92C
:102570000241046144618461FFF732F928030C9041
:102580000CA91648FFF7B6F91448FFF720FB042002
:1025900004905020CDE9050404A910480894FFF7E1
:1025A0007BFD2020CDE9090409A90C480B94FFF715
:1025B000E7F8CDE9004502940022694607480394F4
:1025C000FFF776FA02200090042269460348FFF7DD
:1025D0006FFA11B030BD0000002C014094000020C3
:1025E00010B58EB000240794089409940A940B94B3
:1025F0000C941C2168460D94FDF71DFE16484FF003
:10260000804101600721C0E9011442F20F71C0E965
:1026100003148461FFF7E4F84FF48050079007A992
:102620000D48FFF767F90C48FFF79FFC0B940BA9C7
:1026300009480D94FFF7A4F86020CDE90004029446
:102640000422694604480494FFF7FBFB0248FFF7A5
:10265000CFFB0EB010BD0000D4000020094808498F
:1026600001604FF416514160002181600C22C1606D
:10267000C0E904128161C16101624162FFF7D2BD0C
:10268000004C004094010020FEE770470907090E46
:10269000002806DA00F00F0000F1E02080F8141D99
:1026A000704700F1E02080F8001470477047000088
:1026B0002DE9F041444C05468846E0680026810734
:1026C00028680DD0E16801F00301814216D1A8B15C
:1026D000E0686968C0F30210401C88420ED120E017
:1026E000012804D0022805D0032807D108E021687A
:1026F000890701E021684905002907DB01265FE021
:102700002168890302D421684903F5E7E1686A6812
:102710006FF00F0321F0730103EB02121143014329
:10272000E160206820F080602060FEF761F90746D4
:1027300005E000BFFEF75CF9C01B022837D820680F
:102740000001F7D4B8F1000F18D0B8F1010F1ED076
:10275000287D4FF07E41400801EB4060A96840EAC7
:1027600001202169194A114008432061206840F086
:1027700080602060FEF73CF907461AE0A868E96827
:102780000002090940EA41402169114AEBE7288A21
:102790001049400801EB4050A96840EA0120216936
:1027A0000D4AE0E7FEF724F9C01B022801D90326F1
:1027B00006E020680001F5D52069A9690843206179
:1027C0003046BDE8F081000000100240FF80FFF9B4
:1027D000FF80FDFF0000E0FFFF809FFF2DE9F0413B
:1027E0003D4C06468846E0680025810730680DD0DC
:1027F000E16801F00301814216D1A8B1E068716877
:10280000C0F30210401C88420ED120E0012804D001
:10281000022805D0032807D108E02168890701E0D4
:1028200021684905002907DB012551E0216889035A
:1028300002D421684903F5E7E16872686FF00F037D
:1028400021F0730103EB021211430143E1602068A0
:1028500020F080502060FEF7CBF8074605E000BF6F
:10286000FEF7C6F8C01B022829D820688000F7D4DC
:10287000B8F1000F15D0307C4FF07E41400801EBDD
:102880004060B16840EA01206169144A1140084380
:102890006061206840F080502060FEF7A9F807468C
:1028A0000FE0B068F1680002090940EA414061693F
:1028B0000B4AEBE7FEF79CF8C01B022801D9032561
:1028C00006E020688000F5D56069716908436061A1
:1028D0002846BDE8F081000000100240FF80FFF9AB
:1028E000FF80FDFFF8B51C4D06460024A86DC00012
:1028F00002D5FEF713FA0DE0A86D40F08050A865F0
:10290000A86D00F080500090FEF708FAA96D21F044
:102910008051A965B0F5007F04D0802E07D94FF013
:1029200003040AE0802E08D9A02E01D804E001D1CA
:10293000022402E0702E00D101240848016821F031
:10294000070121430160006800F00700A04201D0A8
:102950000120F8BD0020F8BD001002400020024018
:102960007047FEF74BB810B5B8B0442122A8FDF768
:1029700062FC142133A8FDF75EFC88216846FDF750
:102980005AFC1020229000240120CDE92804702058
:102990002A902C9422A8FEF7A9FC0F20CDE933043D
:1029A00035943694002133A83794FEF797FB08201E
:1029B000009011946846FEF7B9F94FF40070FEF7E5
:1029C00079F938B010BD00000D48016841F470017C
:1029D00001600C48016841F0010101600021816043
:1029E0000268094B1A4002608214C260026822F435
:1029F0008022026081610249C0038039086070470B
:102A000088ED00E000100240FFFFF6EA0148FFF702
:102A10002DB900009400002010B50448FFF726F9F6
:102A2000BDE810400248FDF7D2BD000014010020AF
:102A30004C0000200148FFF719B9000054010020A4
:102A40002DE9F0470268264B264D274E274F284C8C
:102A50004FF0804A984209D0504507D0A84205D08F
:102A6000B04203D0B84201D0A04204D122F0700C91
:102A70004A6842EA0C02DFF87CC0DFF87C80DFF8AD
:102A80007C9098420FD050450DD0A8420BD0B04258
:102A900009D0B84207D0A04205D0604503D04045D8
:102AA00001D0484503D122F44075CA682A434D69D4
:102AB00022F080022A4302608A68C2620A68826247
:102AC000984207D0A04205D0604503D0404501D0D0
:102AD000484501D10969016301214161BDE8F087E1
:102AE000002C01400004004000080040000C0040A1
:102AF00000340140004001400044014000480140D2
:102B000010B501F01F030121046A99408C4304624F
:102B1000016A9A401143016210BD10B5846842EA0F
:102B2000032224F47F440A432243826010BD82685A
:102B300022F070020A4342F00701816070470000F2
:102B40002DE9F043026A22F001020262056A43683D
:102B500082691C4C25F0020522400C6822F0030219
:102B600014438A68194E2A43174D194FDFF864C081
:102B7000DFF86490A84207D0B04205D0B84203D035
:102B8000604501D0484506D122F00808CA6842EAEB
:102B9000080222F00402A84207D0B04205D0B84291
:102BA00003D0604501D0484505D14D6923F44073F9
:102BB0001D438B692B434360846149684163026212
:102BC000BDE8F0838FFFFEFF002C01400034014080
:102BD000004001400044014000480140F0B5026A55
:102BE00022F010020262056A42688369194C1B4E8A
:102BF00023400C6823F4407343EA042425F02003A7
:102C00008D6843EA0513144DA84201D0B04206D1A5
:102C1000CF6823F0800343EA071323F04003A84260
:102C20000AD0B04208D00E4DA84205D00D4DA842A2
:102C300002D00D4DA84207D14D6922F4406242EA0C
:102C400085028D6942EA8502426084614968816338
:102C50000362F0BDFF8FFFFE002C014000340140F5
:102C6000004001400044014000480140F0B5026AC4
:102C700022F480720262056A4368C269194C1B4ED5
:102C800022400C6822F00302144325F400728D6880
:102C900042EA0522144DA84201D0B04206D1CF68C5
:102CA00022F4006242EA072222F48062A8420AD09B
:102CB000B04208D00E4DA84205D00E4DA84202D019
:102CC0000D4DA84207D14D6923F4405343EA051343
:102CD0008D6943EA05134360C4614968C1630262B8
:102CE000F0BD00008FFFFEFF002C014000340140CA
:102CF00000400140004401400048014030B5026AF4
:102D000022F480520262046A4268C369124D24F4BC
:102D100000542B400D6823F4407343EA05238D686B
:102D200044EA05340D4DA8420BD00D4DA84208D001
:102D30000C4DA84205D00C4DA84202D00B4DA84224
:102D400004D14D6922F4804242EA85124260C36197
:102D500049680164046230BDFF8FFFFE002C014012
:102D6000003401400040014000440140004801405F
:102D700030B5026A22F480320262046A4268436D0E
:102D8000114D2B400D681D4324F400330C8943EA98
:102D900004430E4CA0420BD00D4CA04208D00D4C69
:102DA000A04205D00C4CA04202D00C4CA04204D151
:102DB0004C6922F4803242EA042242604565496847
:102DC0008165036230BD00008FFFFEFF002C0140D3
:102DD00000340140004001400044014000480140EF
:102DE00030B5026A22F480120262046A4268436DBE
:102DF000114D24F400142B400D6843EA05230D897E
:102E000044EA05540D4DA8420BD00D4DA84208D000
:102E10000C4DA84205D00C4DA84202D00B4DA84243
:102E200004D14D6922F4802242EA85224260436542
:102E30004968C165046230BDFF8FFFFE002C014070
:102E4000003401400040014000440140004801407E
:102E500030B40468A26822F070034A681A431B4B1E
:102E60001A400B681343A3604A6812F00F0F1FD17A
:102E70001211082A1CD2DFE802F01B1B1B1B0B1DC2
:102E800023040B69D1E90221006830BCFFF745BE7D
:102E90000268136A146A24F00104146202689469D7
:102EA000096924F0F00444EA0111916100680362A9
:102EB00030BC70470A698968006830BC00F008B807
:102EC0000A698968006830BC00F050B8F8FFFEFF5E
:102ED00010B5036A046A24F001040462846924F0D2
:102EE000F00444EA021423F00A020A4384610262F5
:102EF00010BD000070B5046A24F001040462846906
:102F0000056A144EB04211D0B0F1804F0ED0124E6F
:102F1000B0420BD0114EB04208D0114EB04205D095
:102F2000104EB04202D0104EB04203D124F0030440
:102F3000144301E044F001041A0724F0F00444EAC9
:102F4000126225F00A0301F00A011943826101624D
:102F500070BD0000002C014000040040000800404B
:102F6000000C0040003401400040014010B5036AED
:102F700023F0100303628369046A23F4704343EA75
:102F8000023224F0A00343EA01118261016210BD04
:102F900030B5046A24F0100404628469056A24F4DC
:102FA000407444EA022222F470444FF6FF7202EAAF
:102FB00003322243A02425F0A00304EA011119439F
:102FC0008261016230BD00000148FFF789B800004E
:102FD0009401002090F82410C90706D001684A68BF
:102FE000836A22F400321A434A6090F82410890759
:102FF00006D501684A68C36A22F480321A434A60DF
:1030000090F82410490706D501684A68036B22F43A
:1030100080221A434A6090F82410090706D50168F7
:103020004A68436B22F400421A434A6090F8241025
:10303000C90606D501688A68836B22F480521A4358
:103040008A6090F82410890606D501688A68C36BE7
:1030500022F400521A438A6090F82410490611D5D0
:1030600001684A68036C22F480121A434A60016CBA
:10307000B1F5801F06D101684A68436C22F4C00292
:103080001A434A6090F82410090606D501684A6878
:10309000806C22F4002202434A607047F8B5002693
:1030A00004464667FDF7A4FC0546206800686FF0FB
:1030B0007E47000708D52B4600224FF4001120461A
:1030C000009700F01EFA60B92068006840070AD532
:1030D0002B4600224FF480012046009700F011FAA1
:1030E00008B10320F8BD202084F8710084F8720034
:1030F00084F870600020F8BD10B5806A0021A0F847
:103100005A10A0F85210FEF7EAFF10BD01680A68D5
:1031100022F490720A6001688A6822F001028A60D3
:10312000202180F8721000210166704710B5B0F8B8
:103130005C2090F872300168222B04D0088B40F09C
:103140000800088310BD898C436D11401980416DC2
:10315000891C4165B0F85A10491E0904090CA0F8F1
:103160005A10EFD101680A6822F490720A6001686F
:103170008A6822F001028A60202180F87210002102
:103180000166FFF725F910BD10B5B0F85C2090F886
:1031900072300168222B04D0088B40F008000883AD
:1031A00010BD898C1140426D531C43651170B0F8FD
:1031B0005A10491E0904090CA0F85A10F0D10168F0
:1031C0000A6822F490720A6001688A6822F001029B
:1031D0008A60202180F8721000210166FFF7F8F85C
:1031E00010BD00002DE9F0410446016880682369A4
:1031F000E669184363691025002733431843954A4D
:103200000B68954E334003430B6020684168E368C8
:1032100021F44051194341602168A069914201D0D5
:10322000236A18438B6823F4306303438B608B4B12
:1032300021688B4899420DD1D0F8880010F0030026
:1032400006D001285AD0022856D0032859D157E079
:10325000012556E0834B99420BD1D0F8880010F03D
:103260000C0047D0042849D0082845D00C2848D164
:1032700046E07D4B99420BD1D0F8880010F0300029
:1032800038D010283AD0202836D0302839D137E02D
:10329000764B99420BD1D0F8880010F0C00029D0AD
:1032A00040282BD0802827D0C0282AD128E0704B76
:1032B00099420ED1D0F8880010F440701AD0B0F5C1
:1032C000807F1BD0B0F5007F16D0B0F5407F18D1BD
:1032D00016E0914215D1D0F8880010F4406009D072
:1032E000B0F5806F0AD0B0F5006F05D0B0F5406F33
:1032F00007D105E0002504E0022502E0042500E0F6
:1033000008255C4B00264FF4004091423DD135B179
:10331000022D07D0042D07D0082D10D107E0FDF7AE
:103320006FFF03E0184602E0FDF78EFFA8B3626866
:1033300002EB4201814202D8B0EB023F01D90127E2
:1033400075E0DFF834815DB1022D0CD0042D13D06F
:10335000082DF4D150082905401846F1000105E078
:10336000FDF74EFF0AE050084449F5E70023FCF75B
:1033700027FFA0F5407156E0FDF766FF6268010E79
:103380000302500818187141F0E7E1694FF6EF7831
:1033900081422FD1092DD2D200E048E0DFE805F0CC
:1033A00006092005230505052600C8E7FDF728FFC7
:1033B00001E0FDF737FF4100D4F8040001EB5001B4
:1033C000B1FBF0F080B2A0F110014145B7D84FF643
:1033D000F0710140C0F3420001432068C16026E063
:1033E00027496068EAE7FDF72FFFE4E74FF48031F3
:1033F0006068E3E7092DA2D2DFE805F006091E05A3
:103400002205050525009AE7FDF7FAFE01E0FDF724
:1034100009FF0146606801EB500100BFB1FBF0F00D
:1034200080B2A0F11001414589D82168C8602666A4
:1034300038466666BDE8F081606803EB5001EDE751
:10344000FDF702FFE5E7616800EB5100B0FBF1F02A
:10345000E6E7000000800040F369FFEF003801401C
:10346000001002400044004000480040004C004072
:10347000005000400024F400FFFC0F00000024F482
:103480000048E80190F87110212910D1B0F85210CD
:1034900071B1C16C02680988C1F308011185C16C62
:1034A000891CC164B0F85210491EA0F85210704730
:1034B00001680A6822F080020A600068016841F031
:1034C00040010160704790F8711021290DD1B0F8CA
:1034D000521059B1C16C4A1CC26402680978118546
:1034E000B0F85210491EA0F85210704701680A68DF
:1034F00022F080020A600068016841F0400101602A
:1035000070472DE9F041984617460E460446069D41
:103510001DE0681C1BD02DB1FDF76AFAA0EB080076
:10352000A84214D92068016821F4D0710160206894
:10353000816821F001018160202084F8710084F805
:103540007200002084F870000320BDE8F08120683C
:10355000C06936EA000004D00020B842D9D000206B
:10356000F3E70120F9E7000070B502221749184877
:10357000FEF7D8FE154800231038144DC372C27AE6
:10358000A95CC17003730179491C0171017A4E086D
:103590000672C47804F003018172012902D0022965
:1035A00003D005E046F0080101E006F0F7010172E2
:1035B000A108C170017B491CC9B201730429E2D37F
:1035C000521CD1B2C1720229D9D370BD10000020A3
:1035D0009401002070B51648154C00260078E07064
:1035E000667004F10E0560782E54A670295C890877
:1035F0002954E278D30702D041F0400101E041F0C4
:10360000800129545108E170A178491CC9B2A17008
:103610000429EBD3064902220E310648FEF7DAFEF2
:103620006078401CC0B260700228DCD370BD00001E
:103630000000002094010020FEE702E008C8121FED
:1036400008C1002AFAD170477047002001E001C18B
:10365000121F002AFBD170472DED048B8AB0FDF7B5
:10366000D5F9FFF780F9FEF7EBFEFEF7F7FF00252F
:103670005748009501955549029501600721C0E919
:10368000011533218561C160FEF7AAF800956946EE
:103690004F480295FEF774F8FEF750FF4C484D492D
:1036A000B4380160C5604561C9060561C0E901150E
:1036B000C561FDF727FA24216846FCF7BCFD4449A3
:1036C0004548C83908600846FCF7B5FF40480095F2
:1036D00001950295039500226946C8380495FCF7C8
:1036E000E8FEFEF77DFF3A480095403001953B49E2
:1036F0000295C0E900154FF6FF71C0E902518561DE
:10370000FEF76EF832480095694640300295FEF7A4
:1037100037F82F4800218038FEF776FA2C4804212C
:103720008038FEF771FA2A48B438FDF7ADFA2D4F0C
:103730002B4E4FF090494FF003089FED2B8B9FEDE0
:103740002C9B3C46FFF746FFFFF70EFF012130465A
:10375000FDF743F9A08202213046FDF73EF9E082F1
:1037600004213046FDF739F9208308213046FDF762
:1037700034F9608301214846FDF72FF9A083397899
:10378000B1FBF8F04FF47A7148432064FCF7D3FDA5
:1037900053EC182BFCF75AFD53EC192BFCF756FD94
:1037A000FCF7D6FDE0630A480021C838FCF79BFF10
:1037B000074800221146C838236CFCF787FF08B180
:1037C0006571BFE701206071BCE700000010004098
:1037D00014010020107800400074004000140040E4
:1037E00000080048000000206666666666660A40BB
:1037F000000000000000303F00000000000000005A
:103800000102030406070809A0860100400D030019
:10381000801A060000350C0040420F0080841E0014
:1038200000093D0000127A000024F40000366E0109
:103830000048E801006CDC02000000000102030403
:1038400060380008000000204C0000003A360008F4
:10385000AC3800084C000020C40500004A360008BF
:103860000F00000000000000000000000000000049
:1038700000000F0000000000000000000000000039
:103880000000000000000000000000000000000038
:103890000000000000000000000000000000000028
:0C38A000000000000000000000093D00D6
:040000050800018965
:00000001FF
